{
  "contractName": "TestingMek",
  "abi": [
    {
      "inputs": [
        {
          "internalType": "string",
          "name": "_name",
          "type": "string"
        },
        {
          "internalType": "string",
          "name": "_symbol",
          "type": "string"
        },
        {
          "internalType": "string",
          "name": "_initBaseURI",
          "type": "string"
        }
      ],
      "stateMutability": "nonpayable",
      "type": "constructor"
    },
    {
      "anonymous": false,
      "inputs": [
        {
          "indexed": true,
          "internalType": "address",
          "name": "owner",
          "type": "address"
        },
        {
          "indexed": true,
          "internalType": "address",
          "name": "approved",
          "type": "address"
        },
        {
          "indexed": true,
          "internalType": "uint256",
          "name": "tokenId",
          "type": "uint256"
        }
      ],
      "name": "Approval",
      "type": "event"
    },
    {
      "anonymous": false,
      "inputs": [
        {
          "indexed": true,
          "internalType": "address",
          "name": "owner",
          "type": "address"
        },
        {
          "indexed": true,
          "internalType": "address",
          "name": "operator",
          "type": "address"
        },
        {
          "indexed": false,
          "internalType": "bool",
          "name": "approved",
          "type": "bool"
        }
      ],
      "name": "ApprovalForAll",
      "type": "event"
    },
    {
      "anonymous": false,
      "inputs": [
        {
          "indexed": true,
          "internalType": "address",
          "name": "previousOwner",
          "type": "address"
        },
        {
          "indexed": true,
          "internalType": "address",
          "name": "newOwner",
          "type": "address"
        }
      ],
      "name": "OwnershipTransferred",
      "type": "event"
    },
    {
      "anonymous": false,
      "inputs": [
        {
          "indexed": true,
          "internalType": "address",
          "name": "from",
          "type": "address"
        },
        {
          "indexed": true,
          "internalType": "address",
          "name": "to",
          "type": "address"
        },
        {
          "indexed": true,
          "internalType": "uint256",
          "name": "tokenId",
          "type": "uint256"
        }
      ],
      "name": "Transfer",
      "type": "event"
    },
    {
      "inputs": [
        {
          "internalType": "address",
          "name": "to",
          "type": "address"
        },
        {
          "internalType": "uint256",
          "name": "tokenId",
          "type": "uint256"
        }
      ],
      "name": "approve",
      "outputs": [],
      "stateMutability": "nonpayable",
      "type": "function"
    },
    {
      "inputs": [
        {
          "internalType": "address",
          "name": "owner",
          "type": "address"
        }
      ],
      "name": "balanceOf",
      "outputs": [
        {
          "internalType": "uint256",
          "name": "",
          "type": "uint256"
        }
      ],
      "stateMutability": "view",
      "type": "function"
    },
    {
      "inputs": [],
      "name": "baseExtension",
      "outputs": [
        {
          "internalType": "string",
          "name": "",
          "type": "string"
        }
      ],
      "stateMutability": "view",
      "type": "function"
    },
    {
      "inputs": [],
      "name": "baseURI",
      "outputs": [
        {
          "internalType": "string",
          "name": "",
          "type": "string"
        }
      ],
      "stateMutability": "view",
      "type": "function"
    },
    {
      "inputs": [],
      "name": "cost",
      "outputs": [
        {
          "internalType": "uint256",
          "name": "",
          "type": "uint256"
        }
      ],
      "stateMutability": "view",
      "type": "function"
    },
    {
      "inputs": [
        {
          "internalType": "uint256",
          "name": "tokenId",
          "type": "uint256"
        }
      ],
      "name": "getApproved",
      "outputs": [
        {
          "internalType": "address",
          "name": "",
          "type": "address"
        }
      ],
      "stateMutability": "view",
      "type": "function"
    },
    {
      "inputs": [
        {
          "internalType": "address",
          "name": "owner",
          "type": "address"
        },
        {
          "internalType": "address",
          "name": "operator",
          "type": "address"
        }
      ],
      "name": "isApprovedForAll",
      "outputs": [
        {
          "internalType": "bool",
          "name": "",
          "type": "bool"
        }
      ],
      "stateMutability": "view",
      "type": "function"
    },
    {
      "inputs": [],
      "name": "maxMintAmount",
      "outputs": [
        {
          "internalType": "uint256",
          "name": "",
          "type": "uint256"
        }
      ],
      "stateMutability": "view",
      "type": "function"
    },
    {
      "inputs": [],
      "name": "maxSupply",
      "outputs": [
        {
          "internalType": "uint256",
          "name": "",
          "type": "uint256"
        }
      ],
      "stateMutability": "view",
      "type": "function"
    },
    {
      "inputs": [],
      "name": "name",
      "outputs": [
        {
          "internalType": "string",
          "name": "",
          "type": "string"
        }
      ],
      "stateMutability": "view",
      "type": "function"
    },
    {
      "inputs": [],
      "name": "owner",
      "outputs": [
        {
          "internalType": "address",
          "name": "",
          "type": "address"
        }
      ],
      "stateMutability": "view",
      "type": "function"
    },
    {
      "inputs": [
        {
          "internalType": "uint256",
          "name": "tokenId",
          "type": "uint256"
        }
      ],
      "name": "ownerOf",
      "outputs": [
        {
          "internalType": "address",
          "name": "",
          "type": "address"
        }
      ],
      "stateMutability": "view",
      "type": "function"
    },
    {
      "inputs": [],
      "name": "paused",
      "outputs": [
        {
          "internalType": "bool",
          "name": "",
          "type": "bool"
        }
      ],
      "stateMutability": "view",
      "type": "function"
    },
    {
      "inputs": [],
      "name": "renounceOwnership",
      "outputs": [],
      "stateMutability": "nonpayable",
      "type": "function"
    },
    {
      "inputs": [
        {
          "internalType": "address",
          "name": "from",
          "type": "address"
        },
        {
          "internalType": "address",
          "name": "to",
          "type": "address"
        },
        {
          "internalType": "uint256",
          "name": "tokenId",
          "type": "uint256"
        }
      ],
      "name": "safeTransferFrom",
      "outputs": [],
      "stateMutability": "nonpayable",
      "type": "function"
    },
    {
      "inputs": [
        {
          "internalType": "address",
          "name": "from",
          "type": "address"
        },
        {
          "internalType": "address",
          "name": "to",
          "type": "address"
        },
        {
          "internalType": "uint256",
          "name": "tokenId",
          "type": "uint256"
        },
        {
          "internalType": "bytes",
          "name": "_data",
          "type": "bytes"
        }
      ],
      "name": "safeTransferFrom",
      "outputs": [],
      "stateMutability": "nonpayable",
      "type": "function"
    },
    {
      "inputs": [
        {
          "internalType": "address",
          "name": "operator",
          "type": "address"
        },
        {
          "internalType": "bool",
          "name": "approved",
          "type": "bool"
        }
      ],
      "name": "setApprovalForAll",
      "outputs": [],
      "stateMutability": "nonpayable",
      "type": "function"
    },
    {
      "inputs": [
        {
          "internalType": "bytes4",
          "name": "interfaceId",
          "type": "bytes4"
        }
      ],
      "name": "supportsInterface",
      "outputs": [
        {
          "internalType": "bool",
          "name": "",
          "type": "bool"
        }
      ],
      "stateMutability": "view",
      "type": "function"
    },
    {
      "inputs": [],
      "name": "symbol",
      "outputs": [
        {
          "internalType": "string",
          "name": "",
          "type": "string"
        }
      ],
      "stateMutability": "view",
      "type": "function"
    },
    {
      "inputs": [
        {
          "internalType": "uint256",
          "name": "index",
          "type": "uint256"
        }
      ],
      "name": "tokenByIndex",
      "outputs": [
        {
          "internalType": "uint256",
          "name": "",
          "type": "uint256"
        }
      ],
      "stateMutability": "view",
      "type": "function"
    },
    {
      "inputs": [
        {
          "internalType": "address",
          "name": "owner",
          "type": "address"
        },
        {
          "internalType": "uint256",
          "name": "index",
          "type": "uint256"
        }
      ],
      "name": "tokenOfOwnerByIndex",
      "outputs": [
        {
          "internalType": "uint256",
          "name": "",
          "type": "uint256"
        }
      ],
      "stateMutability": "view",
      "type": "function"
    },
    {
      "inputs": [],
      "name": "totalSupply",
      "outputs": [
        {
          "internalType": "uint256",
          "name": "",
          "type": "uint256"
        }
      ],
      "stateMutability": "view",
      "type": "function"
    },
    {
      "inputs": [
        {
          "internalType": "address",
          "name": "from",
          "type": "address"
        },
        {
          "internalType": "address",
          "name": "to",
          "type": "address"
        },
        {
          "internalType": "uint256",
          "name": "tokenId",
          "type": "uint256"
        }
      ],
      "name": "transferFrom",
      "outputs": [],
      "stateMutability": "nonpayable",
      "type": "function"
    },
    {
      "inputs": [
        {
          "internalType": "address",
          "name": "newOwner",
          "type": "address"
        }
      ],
      "name": "transferOwnership",
      "outputs": [],
      "stateMutability": "nonpayable",
      "type": "function"
    },
    {
      "inputs": [
        {
          "internalType": "uint256",
          "name": "_mintAmount",
          "type": "uint256"
        }
      ],
      "name": "mint",
      "outputs": [],
      "stateMutability": "payable",
      "type": "function"
    },
    {
      "inputs": [
        {
          "internalType": "address",
          "name": "_owner",
          "type": "address"
        }
      ],
      "name": "walletOfOwner",
      "outputs": [
        {
          "internalType": "uint256[]",
          "name": "",
          "type": "uint256[]"
        }
      ],
      "stateMutability": "view",
      "type": "function"
    },
    {
      "inputs": [
        {
          "internalType": "uint256",
          "name": "tokenId",
          "type": "uint256"
        }
      ],
      "name": "tokenURI",
      "outputs": [
        {
          "internalType": "string",
          "name": "",
          "type": "string"
        }
      ],
      "stateMutability": "view",
      "type": "function"
    },
    {
      "inputs": [
        {
          "internalType": "uint256",
          "name": "_newCost",
          "type": "uint256"
        }
      ],
      "name": "setCost",
      "outputs": [],
      "stateMutability": "nonpayable",
      "type": "function"
    },
    {
      "inputs": [
        {
          "internalType": "uint256",
          "name": "_newmaxMintAmount",
          "type": "uint256"
        }
      ],
      "name": "setmaxMintAmount",
      "outputs": [],
      "stateMutability": "nonpayable",
      "type": "function"
    },
    {
      "inputs": [
        {
          "internalType": "string",
          "name": "_newBaseURI",
          "type": "string"
        }
      ],
      "name": "setBaseURI",
      "outputs": [],
      "stateMutability": "nonpayable",
      "type": "function"
    },
    {
      "inputs": [
        {
          "internalType": "string",
          "name": "_newBaseExtension",
          "type": "string"
        }
      ],
      "name": "setBaseExtension",
      "outputs": [],
      "stateMutability": "nonpayable",
      "type": "function"
    },
    {
      "inputs": [
        {
          "internalType": "bool",
          "name": "_state",
          "type": "bool"
        }
      ],
      "name": "pause",
      "outputs": [],
      "stateMutability": "nonpayable",
      "type": "function"
    },
    {
      "inputs": [
        {
          "internalType": "uint256",
          "name": "amount",
          "type": "uint256"
        }
      ],
      "name": "withdraw",
      "outputs": [],
      "stateMutability": "payable",
      "type": "function"
    }
  ],
  "bytecode": "0x60c06040526005608081905264173539b7b760d91b60a09081526200002891600c9190620001a7565b5066b1a2bc2ec50000600d556122b8600e556014600f556010805460ff191690553480156200005657600080fd5b506040516200266938038062002669833981016040819052620000799162000300565b82518390839062000092906000906020850190620001a7565b508051620000a8906001906020840190620001a7565b505050620000c5620000bf620000d960201b60201c565b620000dd565b620000d0816200012f565b505050620003e0565b3390565b600a80546001600160a01b038381166001600160a01b0319831681179093556040519116919082907f8be0079c531659141344cd1fd0a4f28419497f9722a3daafe3b4186f6b6457e090600090a35050565b600a546001600160a01b031633146200018e5760405162461bcd60e51b815260206004820181905260248201527f4f776e61626c653a2063616c6c6572206973206e6f7420746865206f776e6572604482015260640160405180910390fd5b8051620001a390600b906020840190620001a7565b5050565b828054620001b5906200038d565b90600052602060002090601f016020900481019282620001d9576000855562000224565b82601f10620001f457805160ff191683800117855562000224565b8280016001018555821562000224579182015b828111156200022457825182559160200191906001019062000207565b506200023292915062000236565b5090565b5b8082111562000232576000815560010162000237565b600082601f8301126200025e578081fd5b81516001600160401b03808211156200027b576200027b620003ca565b604051601f8301601f19908116603f01168101908282118183101715620002a657620002a6620003ca565b81604052838152602092508683858801011115620002c2578485fd5b8491505b83821015620002e55785820183015181830184015290820190620002c6565b83821115620002f657848385830101525b9695505050505050565b60008060006060848603121562000315578283fd5b83516001600160401b03808211156200032c578485fd5b6200033a878388016200024d565b9450602086015191508082111562000350578384fd5b6200035e878388016200024d565b9350604086015191508082111562000374578283fd5b5062000383868287016200024d565b9150509250925092565b600181811c90821680620003a257607f821691505b60208210811415620003c457634e487b7160e01b600052602260045260246000fd5b50919050565b634e487b7160e01b600052604160045260246000fd5b61227980620003f06000396000f3fe6080604052600436106101ee5760003560e01c80635c975abb1161010d578063a0712d68116100a0578063c87b56dd1161006f578063c87b56dd14610552578063d5abeb0114610572578063da3ef23f14610588578063e985e9c5146105a8578063f2fde38b146105f157600080fd5b8063a0712d68146104ea578063a22cb465146104fd578063b88d4fde1461051d578063c66828621461053d57600080fd5b8063715018a6116100dc578063715018a6146104825780637f00c7a6146104975780638da5cb5b146104b757806395d89b41146104d557600080fd5b80635c975abb146104135780636352211e1461042d5780636c0360eb1461044d57806370a082311461046257600080fd5b806323b872dd11610185578063438b630011610154578063438b63001461038657806344a0d68a146103b35780634f6ccce7146103d357806355f804b3146103f357600080fd5b806323b872dd146103135780632e1a7d4d146103335780632f745c591461034657806342842e0e1461036657600080fd5b8063095ea7b3116101c1578063095ea7b3146102a457806313faede6146102c457806318160ddd146102e8578063239c70ae146102fd57600080fd5b806301ffc9a7146101f357806302329a291461022857806306fdde031461024a578063081812fc1461026c575b600080fd5b3480156101ff57600080fd5b5061021361020e366004611e03565b610611565b60405190151581526020015b60405180910390f35b34801561023457600080fd5b50610248610243366004611de9565b61063c565b005b34801561025657600080fd5b5061025f610682565b60405161021f9190612008565b34801561027857600080fd5b5061028c610287366004611e81565b610714565b6040516001600160a01b03909116815260200161021f565b3480156102b057600080fd5b506102486102bf366004611dc0565b6107a9565b3480156102d057600080fd5b506102da600d5481565b60405190815260200161021f565b3480156102f457600080fd5b506008546102da565b34801561030957600080fd5b506102da600f5481565b34801561031f57600080fd5b5061024861032e366004611ce3565b6108bf565b610248610341366004611e81565b6108f0565b34801561035257600080fd5b506102da610361366004611dc0565b61094b565b34801561037257600080fd5b50610248610381366004611ce3565b6109e1565b34801561039257600080fd5b506103a66103a1366004611c97565b6109fc565b60405161021f9190611fc4565b3480156103bf57600080fd5b506102486103ce366004611e81565b610aba565b3480156103df57600080fd5b506102da6103ee366004611e81565b610ae9565b3480156103ff57600080fd5b5061024861040e366004611e3b565b610b8a565b34801561041f57600080fd5b506010546102139060ff1681565b34801561043957600080fd5b5061028c610448366004611e81565b610bc7565b34801561045957600080fd5b5061025f610c3e565b34801561046e57600080fd5b506102da61047d366004611c97565b610ccc565b34801561048e57600080fd5b50610248610d53565b3480156104a357600080fd5b506102486104b2366004611e81565b610d89565b3480156104c357600080fd5b50600a546001600160a01b031661028c565b3480156104e157600080fd5b5061025f610db8565b6102486104f8366004611e81565b610dc7565b34801561050957600080fd5b50610248610518366004611d97565b610e74565b34801561052957600080fd5b50610248610538366004611d1e565b610f39565b34801561054957600080fd5b5061025f610f71565b34801561055e57600080fd5b5061025f61056d366004611e81565b610f7e565b34801561057e57600080fd5b506102da600e5481565b34801561059457600080fd5b506102486105a3366004611e3b565b61105c565b3480156105b457600080fd5b506102136105c3366004611cb1565b6001600160a01b03918216600090815260056020908152604080832093909416825291909152205460ff1690565b3480156105fd57600080fd5b5061024861060c366004611c97565b611099565b60006001600160e01b0319821663780e9d6360e01b1480610636575061063682611134565b92915050565b600a546001600160a01b0316331461066f5760405162461bcd60e51b81526004016106669061206d565b60405180910390fd5b6010805460ff1916911515919091179055565b60606000805461069190612181565b80601f01602080910402602001604051908101604052809291908181526020018280546106bd90612181565b801561070a5780601f106106df5761010080835404028352916020019161070a565b820191906000526020600020905b8154815290600101906020018083116106ed57829003601f168201915b5050505050905090565b6000818152600260205260408120546001600160a01b031661078d5760405162461bcd60e51b815260206004820152602c60248201527f4552433732313a20617070726f76656420717565727920666f72206e6f6e657860448201526b34b9ba32b73a103a37b5b2b760a11b6064820152608401610666565b506000908152600460205260409020546001600160a01b031690565b60006107b482610bc7565b9050806001600160a01b0316836001600160a01b031614156108225760405162461bcd60e51b815260206004820152602160248201527f4552433732313a20617070726f76616c20746f2063757272656e74206f776e656044820152603960f91b6064820152608401610666565b336001600160a01b038216148061083e575061083e81336105c3565b6108b05760405162461bcd60e51b815260206004820152603860248201527f4552433732313a20617070726f76652063616c6c6572206973206e6f74206f7760448201527f6e6572206e6f7220617070726f76656420666f7220616c6c00000000000000006064820152608401610666565b6108ba8383611184565b505050565b6108c933826111f2565b6108e55760405162461bcd60e51b8152600401610666906120a2565b6108ba8383836112e9565b600a546001600160a01b0316331461091a5760405162461bcd60e51b81526004016106669061206d565b604051339082156108fc029083906000818181858888f19350505050158015610947573d6000803e3d6000fd5b5050565b600061095683610ccc565b82106109b85760405162461bcd60e51b815260206004820152602b60248201527f455243373231456e756d657261626c653a206f776e657220696e646578206f7560448201526a74206f6620626f756e647360a81b6064820152608401610666565b506001600160a01b03919091166000908152600660209081526040808320938352929052205490565b6108ba83838360405180602001604052806000815250610f39565b60606000610a0983610ccc565b905060008167ffffffffffffffff811115610a3457634e487b7160e01b600052604160045260246000fd5b604051908082528060200260200182016040528015610a5d578160200160208202803683370190505b50905060005b82811015610ab257610a75858261094b565b828281518110610a9557634e487b7160e01b600052603260045260246000fd5b602090810291909101015280610aaa816121bc565b915050610a63565b509392505050565b600a546001600160a01b03163314610ae45760405162461bcd60e51b81526004016106669061206d565b600d55565b6000610af460085490565b8210610b575760405162461bcd60e51b815260206004820152602c60248201527f455243373231456e756d657261626c653a20676c6f62616c20696e646578206f60448201526b7574206f6620626f756e647360a01b6064820152608401610666565b60088281548110610b7857634e487b7160e01b600052603260045260246000fd5b90600052602060002001549050919050565b600a546001600160a01b03163314610bb45760405162461bcd60e51b81526004016106669061206d565b805161094790600b906020840190611b5c565b6000818152600260205260408120546001600160a01b0316806106365760405162461bcd60e51b815260206004820152602960248201527f4552433732313a206f776e657220717565727920666f72206e6f6e657869737460448201526832b73a103a37b5b2b760b91b6064820152608401610666565b600b8054610c4b90612181565b80601f0160208091040260200160405190810160405280929190818152602001828054610c7790612181565b8015610cc45780601f10610c9957610100808354040283529160200191610cc4565b820191906000526020600020905b815481529060010190602001808311610ca757829003601f168201915b505050505081565b60006001600160a01b038216610d375760405162461bcd60e51b815260206004820152602a60248201527f4552433732313a2062616c616e636520717565727920666f7220746865207a65604482015269726f206164647265737360b01b6064820152608401610666565b506001600160a01b031660009081526003602052604090205490565b600a546001600160a01b03163314610d7d5760405162461bcd60e51b81526004016106669061206d565b610d876000611494565b565b600a546001600160a01b03163314610db35760405162461bcd60e51b81526004016106669061206d565b600f55565b60606001805461069190612181565b6000610dd260085490565b60105490915060ff1615610de557600080fd5b60008211610df257600080fd5b600f54821115610e0157600080fd5b600e54610e0e83836120f3565b1115610e1957600080fd5b600a546001600160a01b03163314610e455781600d54610e39919061211f565b341015610e4557600080fd5b60015b8281116108ba57610e6233610e5d83856120f3565b6114e6565b80610e6c816121bc565b915050610e48565b6001600160a01b038216331415610ecd5760405162461bcd60e51b815260206004820152601960248201527f4552433732313a20617070726f766520746f2063616c6c6572000000000000006044820152606401610666565b3360008181526005602090815260408083206001600160a01b03871680855290835292819020805460ff191686151590811790915590519081529192917f17307eab39ab6107e8899845ad3d59bd9653f200f220920489ca2b5937696c31910160405180910390a35050565b610f4333836111f2565b610f5f5760405162461bcd60e51b8152600401610666906120a2565b610f6b84848484611500565b50505050565b600c8054610c4b90612181565b6000818152600260205260409020546060906001600160a01b0316610ffd5760405162461bcd60e51b815260206004820152602f60248201527f4552433732314d657461646174613a2055524920717565727920666f72206e6f60448201526e3732bc34b9ba32b73a103a37b5b2b760891b6064820152608401610666565b6000611007611533565b905060008151116110275760405180602001604052806000815250611055565b8061103184611542565b600c60405160200161104593929190611ec5565b6040516020818303038152906040525b9392505050565b600a546001600160a01b031633146110865760405162461bcd60e51b81526004016106669061206d565b805161094790600c906020840190611b5c565b600a546001600160a01b031633146110c35760405162461bcd60e51b81526004016106669061206d565b6001600160a01b0381166111285760405162461bcd60e51b815260206004820152602660248201527f4f776e61626c653a206e6577206f776e657220697320746865207a65726f206160448201526564647265737360d01b6064820152608401610666565b61113181611494565b50565b60006001600160e01b031982166380ac58cd60e01b148061116557506001600160e01b03198216635b5e139f60e01b145b8061063657506301ffc9a760e01b6001600160e01b0319831614610636565b600081815260046020526040902080546001600160a01b0319166001600160a01b03841690811790915581906111b982610bc7565b6001600160a01b03167f8c5be1e5ebec7d5bd14f71427d1e84f3dd0314c0f7b2291e5b200ac8c7c3b92560405160405180910390a45050565b6000818152600260205260408120546001600160a01b031661126b5760405162461bcd60e51b815260206004820152602c60248201527f4552433732313a206f70657261746f7220717565727920666f72206e6f6e657860448201526b34b9ba32b73a103a37b5b2b760a11b6064820152608401610666565b600061127683610bc7565b9050806001600160a01b0316846001600160a01b031614806112b15750836001600160a01b03166112a684610714565b6001600160a01b0316145b806112e157506001600160a01b0380821660009081526005602090815260408083209388168352929052205460ff165b949350505050565b826001600160a01b03166112fc82610bc7565b6001600160a01b0316146113645760405162461bcd60e51b815260206004820152602960248201527f4552433732313a207472616e73666572206f6620746f6b656e2074686174206960448201526839903737ba1037bbb760b91b6064820152608401610666565b6001600160a01b0382166113c65760405162461bcd60e51b8152602060048201526024808201527f4552433732313a207472616e7366657220746f20746865207a65726f206164646044820152637265737360e01b6064820152608401610666565b6113d183838361165c565b6113dc600082611184565b6001600160a01b038316600090815260036020526040812080546001929061140590849061213e565b90915550506001600160a01b03821660009081526003602052604081208054600192906114339084906120f3565b909155505060008181526002602052604080822080546001600160a01b0319166001600160a01b0386811691821790925591518493918716917fddf252ad1be2c89b69c2b068fc378daa952ba7f163c4a11628f55a4df523b3ef91a4505050565b600a80546001600160a01b038381166001600160a01b0319831681179093556040519116919082907f8be0079c531659141344cd1fd0a4f28419497f9722a3daafe3b4186f6b6457e090600090a35050565b610947828260405180602001604052806000815250611714565b61150b8484846112e9565b61151784848484611747565b610f6b5760405162461bcd60e51b81526004016106669061201b565b6060600b805461069190612181565b6060816115665750506040805180820190915260018152600360fc1b602082015290565b8160005b8115611590578061157a816121bc565b91506115899050600a8361210b565b915061156a565b60008167ffffffffffffffff8111156115b957634e487b7160e01b600052604160045260246000fd5b6040519080825280601f01601f1916602001820160405280156115e3576020820181803683370190505b5090505b84156112e1576115f860018361213e565b9150611605600a866121d7565b6116109060306120f3565b60f81b81838151811061163357634e487b7160e01b600052603260045260246000fd5b60200101906001600160f81b031916908160001a905350611655600a8661210b565b94506115e7565b6001600160a01b0383166116b7576116b281600880546000838152600960205260408120829055600182018355919091527ff3f7a9fe364faab93b216da50a3214154f22a0a2b415b23a84c8169e8b636ee30155565b6116da565b816001600160a01b0316836001600160a01b0316146116da576116da8382611854565b6001600160a01b0382166116f1576108ba816118f1565b826001600160a01b0316826001600160a01b0316146108ba576108ba82826119ca565b61171e8383611a0e565b61172b6000848484611747565b6108ba5760405162461bcd60e51b81526004016106669061201b565b60006001600160a01b0384163b1561184957604051630a85bd0160e11b81526001600160a01b0385169063150b7a029061178b903390899088908890600401611f87565b602060405180830381600087803b1580156117a557600080fd5b505af19250505080156117d5575060408051601f3d908101601f191682019092526117d291810190611e1f565b60015b61182f573d808015611803576040519150601f19603f3d011682016040523d82523d6000602084013e611808565b606091505b5080516118275760405162461bcd60e51b81526004016106669061201b565b805181602001fd5b6001600160e01b031916630a85bd0160e11b1490506112e1565b506001949350505050565b6000600161186184610ccc565b61186b919061213e565b6000838152600760205260409020549091508082146118be576001600160a01b03841660009081526006602090815260408083208584528252808320548484528184208190558352600790915290208190555b5060009182526007602090815260408084208490556001600160a01b039094168352600681528383209183525290812055565b6008546000906119039060019061213e565b6000838152600960205260408120546008805493945090928490811061193957634e487b7160e01b600052603260045260246000fd5b90600052602060002001549050806008838154811061196857634e487b7160e01b600052603260045260246000fd5b60009182526020808320909101929092558281526009909152604080822084905585825281205560088054806119ae57634e487b7160e01b600052603160045260246000fd5b6001900381819060005260206000200160009055905550505050565b60006119d583610ccc565b6001600160a01b039093166000908152600660209081526040808320868452825280832085905593825260079052919091209190915550565b6001600160a01b038216611a645760405162461bcd60e51b815260206004820181905260248201527f4552433732313a206d696e7420746f20746865207a65726f20616464726573736044820152606401610666565b6000818152600260205260409020546001600160a01b031615611ac95760405162461bcd60e51b815260206004820152601c60248201527f4552433732313a20746f6b656e20616c7265616479206d696e746564000000006044820152606401610666565b611ad56000838361165c565b6001600160a01b0382166000908152600360205260408120805460019290611afe9084906120f3565b909155505060008181526002602052604080822080546001600160a01b0319166001600160a01b03861690811790915590518392907fddf252ad1be2c89b69c2b068fc378daa952ba7f163c4a11628f55a4df523b3ef908290a45050565b828054611b6890612181565b90600052602060002090601f016020900481019282611b8a5760008555611bd0565b82601f10611ba357805160ff1916838001178555611bd0565b82800160010185558215611bd0579182015b82811115611bd0578251825591602001919060010190611bb5565b50611bdc929150611be0565b5090565b5b80821115611bdc5760008155600101611be1565b600067ffffffffffffffff80841115611c1057611c10612217565b604051601f8501601f19908116603f01168101908282118183101715611c3857611c38612217565b81604052809350858152868686011115611c5157600080fd5b858560208301376000602087830101525050509392505050565b80356001600160a01b0381168114611c8257600080fd5b919050565b80358015158114611c8257600080fd5b600060208284031215611ca8578081fd5b61105582611c6b565b60008060408385031215611cc3578081fd5b611ccc83611c6b565b9150611cda60208401611c6b565b90509250929050565b600080600060608486031215611cf7578081fd5b611d0084611c6b565b9250611d0e60208501611c6b565b9150604084013590509250925092565b60008060008060808587031215611d33578081fd5b611d3c85611c6b565b9350611d4a60208601611c6b565b925060408501359150606085013567ffffffffffffffff811115611d6c578182fd5b8501601f81018713611d7c578182fd5b611d8b87823560208401611bf5565b91505092959194509250565b60008060408385031215611da9578182fd5b611db283611c6b565b9150611cda60208401611c87565b60008060408385031215611dd2578182fd5b611ddb83611c6b565b946020939093013593505050565b600060208284031215611dfa578081fd5b61105582611c87565b600060208284031215611e14578081fd5b81356110558161222d565b600060208284031215611e30578081fd5b81516110558161222d565b600060208284031215611e4c578081fd5b813567ffffffffffffffff811115611e62578182fd5b8201601f81018413611e72578182fd5b6112e184823560208401611bf5565b600060208284031215611e92578081fd5b5035919050565b60008151808452611eb1816020860160208601612155565b601f01601f19169290920160200192915050565b600084516020611ed88285838a01612155565b855191840191611eeb8184848a01612155565b85549201918390600181811c9080831680611f0757607f831692505b858310811415611f2557634e487b7160e01b88526022600452602488fd5b808015611f395760018114611f4a57611f76565b60ff19851688528388019550611f76565b60008b815260209020895b85811015611f6e5781548a820152908401908801611f55565b505083880195505b50939b9a5050505050505050505050565b6001600160a01b0385811682528416602082015260408101839052608060608201819052600090611fba90830184611e99565b9695505050505050565b6020808252825182820181905260009190848201906040850190845b81811015611ffc57835183529284019291840191600101611fe0565b50909695505050505050565b6020815260006110556020830184611e99565b60208082526032908201527f4552433732313a207472616e7366657220746f206e6f6e20455243373231526560408201527131b2b4bb32b91034b6b83632b6b2b73a32b960711b606082015260800190565b6020808252818101527f4f776e61626c653a2063616c6c6572206973206e6f7420746865206f776e6572604082015260600190565b60208082526031908201527f4552433732313a207472616e736665722063616c6c6572206973206e6f74206f6040820152701ddb995c881b9bdc88185c1c1c9bdd9959607a1b606082015260800190565b60008219821115612106576121066121eb565b500190565b60008261211a5761211a612201565b500490565b6000816000190483118215151615612139576121396121eb565b500290565b600082821015612150576121506121eb565b500390565b60005b83811015612170578181015183820152602001612158565b83811115610f6b5750506000910152565b600181811c9082168061219557607f821691505b602082108114156121b657634e487b7160e01b600052602260045260246000fd5b50919050565b60006000198214156121d0576121d06121eb565b5060010190565b6000826121e6576121e6612201565b500690565b634e487b7160e01b600052601160045260246000fd5b634e487b7160e01b600052601260045260246000fd5b634e487b7160e01b600052604160045260246000fd5b6001600160e01b03198116811461113157600080fdfea2646970667358221220b691724a4006dfb8a1c2680718ee00127c3e43c8bb1703e44dd1ac63ae23e94a64736f6c63430008040033",
  "immutableReferences": {},
  "source": "// SPDX-License-Identifier: MIT\r\n\r\n\r\npragma solidity ^0.8.0;\r\n\r\nimport \"@openzeppelin/contracts/access/Ownable.sol\";\r\nimport \"@openzeppelin/contracts/token/ERC721/extensions/ERC721Enumerable.sol\";\r\nimport \"@openzeppelin/contracts/utils/Strings.sol\";\r\n\r\ncontract TestingMek is ERC721Enumerable, Ownable {\r\n    \r\n    using Strings for uint256;\r\n\r\n      string public baseURI;\r\n      string public baseExtension = \".json\";\r\n      uint256 public cost = 0.05 ether;\r\n      uint256 public maxSupply = 8888;\r\n      uint256 public maxMintAmount = 20;\r\n      bool public paused = false;\r\n      //mapping(address => bool) public whitelisted;\r\n    \r\n      constructor(\r\n        string memory _name,\r\n        string memory _symbol,\r\n        string memory _initBaseURI\r\n      ) ERC721(_name, _symbol) {\r\n        setBaseURI(_initBaseURI);\r\n        //mint(msg.sender, 20);\r\n      }\r\n    \r\n      // internal\r\n      function _baseURI() internal view virtual override returns (string memory) {\r\n        return baseURI;\r\n      }\r\n    \r\n      // public\r\n      function mint(uint256 _mintAmount) public payable  {\r\n        uint256 supply = totalSupply();\r\n        require(!paused);\r\n        require(_mintAmount > 0);\r\n        require(_mintAmount <= maxMintAmount);\r\n        require(supply + _mintAmount <= maxSupply);\r\n    \r\n        if (msg.sender != owner()) {\r\n            require(msg.value >= cost * _mintAmount);\r\n            //if(whitelisted[msg.sender] != true) {\r\n              \r\n            //}\r\n        }\r\n    \r\n        for (uint256 i = 1; i <= _mintAmount; i++) {\r\n          _safeMint(msg.sender, supply + i);\r\n        }\r\n      }\r\n    \r\n      function walletOfOwner(address _owner)\r\n        public\r\n        view\r\n        returns (uint256[] memory)\r\n      {\r\n        uint256 ownerTokenCount = balanceOf(_owner);\r\n        uint256[] memory tokenIds = new uint256[](ownerTokenCount);\r\n        for (uint256 i; i < ownerTokenCount; i++) {\r\n          tokenIds[i] = tokenOfOwnerByIndex(_owner, i);\r\n        }\r\n        return tokenIds;\r\n      }\r\n    \r\n      function tokenURI(uint256 tokenId)\r\n        public\r\n        view\r\n        virtual\r\n        override\r\n        returns (string memory)\r\n      {\r\n        require(\r\n          _exists(tokenId),\r\n          \"ERC721Metadata: URI query for nonexistent token\"\r\n        );\r\n    \r\n        string memory currentBaseURI = _baseURI();\r\n        return bytes(currentBaseURI).length > 0\r\n            ? string(abi.encodePacked(currentBaseURI, tokenId.toString(), baseExtension))\r\n            : \"\";\r\n      }\r\n    \r\n      //only owner\r\n      function setCost(uint256 _newCost) public onlyOwner() {\r\n        cost = _newCost;\r\n      }\r\n    \r\n      function setmaxMintAmount(uint256 _newmaxMintAmount) public onlyOwner() {\r\n        maxMintAmount = _newmaxMintAmount;\r\n      }\r\n    \r\n      function setBaseURI(string memory _newBaseURI) public onlyOwner {\r\n        baseURI = _newBaseURI;\r\n      }\r\n    \r\n      function setBaseExtension(string memory _newBaseExtension) public onlyOwner {\r\n        baseExtension = _newBaseExtension;\r\n      }\r\n    \r\n      function pause(bool _state) public onlyOwner {\r\n        paused = _state;\r\n      }\r\n     \r\n     /*function whitelistUser(address _user) public onlyOwner {\r\n        whitelisted[_user] = true;\r\n      }*/\r\n     \r\n      /*function removeWhitelistUser(address _user) public onlyOwner {\r\n        whitelisted[_user] = false;\r\n      }*/\r\n    \r\n      /*function withdraw() public payable onlyOwner {\r\n        require(payable(msg.sender).send(address(this).balance));\r\n      }*/\r\n      \r\n      function withdraw(uint amount) public payable onlyOwner {\r\n        payable(msg.sender).transfer(amount);\r\n    }\r\n    \r\n    \r\n}",
  "sourcePath": "C:\\Users\\zysio\\OneDrive\\Documents\\NFT\\MekaNetworkTetsingWebsiteCode\\Hivistesting\\contracts\\TestingMek.sol",
  "compiler": {
    "name": "solc",
    "version": "0.8.4+commit.c7e474f2.Emscripten.clang"
  },
  "schemaVersion": "3.4.3",
  "updatedAt": "2021-10-16T13:08:20.755Z",
  "devdoc": {
    "kind": "dev",
    "methods": {
      "approve(address,uint256)": {
        "details": "See {IERC721-approve}."
      },
      "balanceOf(address)": {
        "details": "See {IERC721-balanceOf}."
      },
      "getApproved(uint256)": {
        "details": "See {IERC721-getApproved}."
      },
      "isApprovedForAll(address,address)": {
        "details": "See {IERC721-isApprovedForAll}."
      },
      "name()": {
        "details": "See {IERC721Metadata-name}."
      },
      "owner()": {
        "details": "Returns the address of the current owner."
      },
      "ownerOf(uint256)": {
        "details": "See {IERC721-ownerOf}."
      },
      "renounceOwnership()": {
        "details": "Leaves the contract without owner. It will not be possible to call `onlyOwner` functions anymore. Can only be called by the current owner. NOTE: Renouncing ownership will leave the contract without an owner, thereby removing any functionality that is only available to the owner."
      },
      "safeTransferFrom(address,address,uint256)": {
        "details": "See {IERC721-safeTransferFrom}."
      },
      "safeTransferFrom(address,address,uint256,bytes)": {
        "details": "See {IERC721-safeTransferFrom}."
      },
      "setApprovalForAll(address,bool)": {
        "details": "See {IERC721-setApprovalForAll}."
      },
      "supportsInterface(bytes4)": {
        "details": "See {IERC165-supportsInterface}."
      },
      "symbol()": {
        "details": "See {IERC721Metadata-symbol}."
      },
      "tokenByIndex(uint256)": {
        "details": "See {IERC721Enumerable-tokenByIndex}."
      },
      "tokenOfOwnerByIndex(address,uint256)": {
        "details": "See {IERC721Enumerable-tokenOfOwnerByIndex}."
      },
      "tokenURI(uint256)": {
        "details": "See {IERC721Metadata-tokenURI}."
      },
      "totalSupply()": {
        "details": "See {IERC721Enumerable-totalSupply}."
      },
      "transferFrom(address,address,uint256)": {
        "details": "See {IERC721-transferFrom}."
      },
      "transferOwnership(address)": {
        "details": "Transfers ownership of the contract to a new account (`newOwner`). Can only be called by the current owner."
      }
    },
    "version": 1
  },
  "userdoc": {
    "kind": "user",
    "methods": {},
    "version": 1
  }
}